S010000050726F6A65746F382E73726563F9
S11300000C9434000C9451000C9451000C94510045
S11300100C9451000C9451000C9451000C9437052D
S11300200C9451000C9451000C9451000C9417073B
S11300300C9451000C9451000C9451000C945100F8
S11300400C9451000C9451000C9451000C945100E8
S11300500C9451000C9451000C9451000C945100D8
S11300600C9451000C94510011241FBECFEFD8E022
S1130070DEBFCDBF12E0A0E0B1E0E6EAF7E102C0E6
S113008005900D92A234B107D9F728E0A2E4B2E0BA
S113009001C01D92AA38B207E1F70E9479050C94B9
S11300A0D10B0C940000CF93DF93EC010E94F00875
S11300B08091420290914302892B31F487E492E0CB
S11300C0909343028093420220914402309145026E
S11300D0C9018C0F9D1F8B3D45E0940770F42817D0
S11300E0390770F4C0914202D0914302C20FD31F6A
S11300F0909345028093440205C0C0E0D0E002C062
S1130100C0E0D0E00E94B209CE01DF91CF91089502
S1130110089580FF04C09BB190619BB903C09BB15B
S11301209F7E9BB981FF04C09BB190629BB903C0C1
S11301309BB19F7D9BB982FF04C09BB190649BB926
S113014003C09BB19F7B9BB983FF04C08BB18068C4
S11301508BB903C08BB18F778BB98BB188608BB9A6
S113016085E08A95F1F700008BB1877F8BB98FE822
S113017091E00197F1F700C000000895CF93C82FD4
S1130180662321F08BB184608BB903C08BB18B7F64
S11301908BB98C2F82958F700E9489008C2F8F7061
S11301A00E948900CF910895CF93C82F60E00E94E8
S11301B0BE00C150C23030F48FE39FE10197F1F7E4
S11301C000C00000CF91089561E00E94BE00089530
S11301D08AB18C6F8AB92FEF80E792E0215080407A
S11301E09040E1F700C000008BB18B7F8BB983E0B6
S11301F00E9489008FE19EE40197F1F700C000009E
S113020083E00E94890087E592E00197F1F700C03E
S1130210000083E00E94890082E00E94890088E255
S11302200E94D4008CE00E94D40086E00E94D40096
S113023081E00E94D4008FE39FE10197F1F700C0B1
S113024000000895CF93DF93EC0103C021960E9430
S1130250E40088818111FACFDF91CF91089566235C
S113026011F090EC01C090E8892B0E94D40008950D
S113027081E00E94D4000895FC0103969283818357
S11302802FEF3FEF3483238396838583908787837F
S113029010820895FC01118610860895CF93DF9390
S11302A09C01FB01DC011196CD91DC911297D38363
S11302B0C2838C819D81958384838C819D81DC01A3
S11302C013967C936E9312977D836C83318720877A
S11302D0F90180818F5F8083DF91CF910895CF935F
S11302E0DF93EB01488159814F3F2FEF520721F4EF
S11302F0FC01A781B0850DC0DC01139601C0DF01AC
S11303001296ED91FC911397208131814217530786
S1130310B0F71296ED91FC911397FB83EA83D58392
S1130320C483BD83AC831396DC93CE9312979987D1
S11303308887FC0120812F5F2083DF91CF9108956E
S1130340CF93DF93FC01A085B185C281D3818481E1
S113035095819D838C83C481D581828193819B8384
S11303608A8311968D919C911297E817F90731F4BD
S11303708481958112969C938E9311971186108691
S11303808C9181508C93DF91CF91089501E011E01D
S1130390D1E0C1E0309912C0CC2381F080912208D1
S11303A08F5F8093220880912208853010F010928C
S11303B0220881E080930001C0E002C03099C1E0CE
S11303C033990EC0DD2361F09091010181E0911118
S11303D080E08093010181E080930001D0E002C0BD
S11303E03399D1E031994FC0112309F44CC0809165
S11303F022088230F9F028F4882341F0813081F01A
S11304003DC0833041F1843081F138C080910701CF
S11304108330A0F5809107018F5F809307012EC080
S113042080910601833650F5809106018F5F809399
S1130430060124C080910401909105018436910540
S1130440E8F48091040190910501019690930501CF
S11304508093040113C080910301823378F4809166
S113046003018F5F8093030109C0809102018233ED
S113047028F4809102018F5F8093020181E08093D0
S1130480000110E002C0319911E032994EC00023FE
S113049009F44BC0809122088230F9F028F48823B3
S11304A041F0813081F03CC0833039F1843079F1FE
S11304B037C080910701882399F180910701815009
S11304C0809307012DC080910601823048F180910C
S11304D0060181508093060123C08091040190910C
S11304E005010297E8F080910401909105010197BC
S11304F0909305018093040113C080910301882324
S113050079F08091030181508093030109C08091A7
S11305100201882329F08091020181508093020115
S113052081E08093000100E002C0329901E08EE195
S113053090E00E94230A2ECFCF93DF93CDB7DEB78E
S11305402A970FB6F894DEBF0FBECDBF81E290E0CC
S11305500E94230A80910001882309F4E3C01092C9
S113056000010E94380160E080E00E942F01809128
S11305700701813059F028F0823069F0833081F02E
S113058013C082E191E00E9422010EC086E191E055
S11305900E94220109C08AE191E00E94220104C064
S11305A08EE191E00E94220180910701882321F0CD
S11305B0809107018130A9F460E086E00E942F0158
S11305C0809106014AE0BE016F5F7F4F90E00E9478
S11305D09C0BCE0101960E94220182E291E00E94CE
S11305E0220160E08CE00E942F01809101018823A8
S11305F019F08AE091E002C08EE091E00E942201AD
S113060061E080E00E942F01809104019091050136
S11306104AE0BE016F5F7F4F0E949C0BCE010196A2
S11306200E94220161E086E00E942F018091030173
S11306301DEC819F812D1124869586958695805D7C
S113064089830EE20A8380910301819F912D1124F5
S1130650969596959695990F292F220F220F920F12
S1130660891B805D8B831C82CE0101960E9422012E
S113067061E08CE00E942F0180910201819F812D15
S11306801124869586958695805D89830A83809159
S11306900201819F112D1124169516951695110F9F
S11306A0912F990F990F190F811B805D8B831C82E9
S11306B0CE0101960E942201809122088230D9F055
S11306C028F4882341F0813071F02CC08330D9F0B4
S11306D0843009F127C060E083E00E942F018AE2A0
S11306E00E94E4001FC060E089E00E942F018AE2BA
S11306F00E94E40017C061E083E00E942F018AE2B7
S11307000E94E4000FC061E089E00E942F018AE2A8
S11307100E94E40007C061E08FE00E942F018AE29A
S11307200E94E40082E290E00E94230A13CF08951D
S113073087B1807F87B988B18F6088B908958F9217
S11307409F92AF92BF92CF92DF92EF92FF920F935C
S11307501F93CF93DF9380910101811105C088B16C
S11307608F7C88B915B876C1609104017091050138
S113077080E197E20E94DA0AEB018091070183305D
S113078009F04BC08091040190910501282F392F65
S113079040E050E060E070E080E090E000E20E9421
S11307A0780B6894AA24A4F80F2EF7E2BF2EF02D3C
S11307B0C12CD12CE12CF12C00E010E00E941B0B89
S11307C0822F932FA42FB52FE3E2F8E0808791873F
S11307D0A287B38740855185628573858081918125
S11307E0A281B381840F951FA61FB71F80839183B5
S11307F0A283B3834081518162817381809103011B
S1130800E72FF0E0E35CFE4F9081899FC001112443
S113081062E370E00E94EE0A0CC18091070182300D
S113082009F04BC08091040190910501282F392FC4
S113083040E050E060E070E080E090E000E20E9480
S1130840780B6894AA24A4F80F2EF7E2BF2EF02D9B
S1130850C12CD12CE12CF12C00E010E00E941B0BE8
S1130860822F932FA42FB52FE3E2F8E0808791879E
S1130870A287B38740855185628573858081918184
S1130880A281B381840F951FA61FB71F8083918314
S1130890A283B38380819181A281B38120910301DA
S11308A0B29F9001112436952795ABE7B4E10E94DD
S11308B0020B96958795682FBCC080910701811122
S11308C035C080910601869F9001879F300D1124C9
S11308D03695279536952795ABE7B4E10E94020B30
S11308E096958795219720912F08309130082C17E1
S11308F03D0720F01092300810922F0820912F0805
S1130900309130082817390748F480910301982F53
S113091080E062E370E00E94EE0A01C060E02F5FB5
S11309203F4F3093300820932F0883C080910701F4
S1130930813009F07DC08090040190900501282D3C
S1130940392D40E050E060E070E080E090E000E2AB
S11309500E94780B6894AA24A4F80F2EF7E2BF2E05
S1130960F02DC12CD12CE12CF12C00E010E00E94E0
S11309701B0B822F932FA42FB52FE3E2F8E080877F
S11309809187A287B38780859185A285B3858B2FB4
S11309909927AA27BB2780879187A287B387E090EE
S11309A02F08F0903008CE0196958795E816F90641
S11309B010F0AFEF01C0A1E0E3E2F8E0208531855B
S11309C0428553850A2E000CBB0B0E94110B8080BC
S11309D09180A280B380DC01CB01880D991DAA1DF2
S11309E0BB1D80839183A283B3832197EC16FD06FC
S11309F060F01092300810922F0810922308109281
S1130A0024081092250810922608809123089091BA
S1130A102408A0912508B0912608682F80912F08FA
S1130A209091300801969093300880932F0801C06C
S1130A3060E090910201690F28B1962F937030E124
S1130A40939FC0011124922F9F7C892B88B96695AE
S1130A50669565B9DF91CF911F910F91FF90EF904B
S1130A60DF90CF90BF90AF909F908F9008951F928A
S1130A700F920FB60F9211242F933F934F935F93CE
S1130A806F937F938F939F93AF93BF93EF93FF9352
S1130A900E949F03FF91EF91BF91AF919F918F911E
S1130AA07F916F915F914F913F912F910F900FBE66
S1130AB00F901F901895A0EBB0E01C92E1EBF0E0D2
S1130AC010821092B20088E18093B3008C9182600E
S1130AD08C93808184608083E0E7F0E08081826091
S1130AE08083089584B18F6384B987B1806387B9A3
S1130AF008950E9472050E9498030E94E8000E94D3
S1130B00380160E082E00E942F0184E291E00E94BB
S1130B10220161E085E00E942F0180E391E00E94C0
S1130B2022010E945B057894A12CB12CC12CD12CFC
S1130B30E12CF12C01E020E030E048E750E064E3F0
S1130B4071E08CE992E00E940D0802E020E030E0C0
S1130B5044E650E068E371E086EC91E00E940D0801
S1130B600E94C508FFCF89EF90E09093890080939D
S1130B708800E0E8F0E080818C7F80838BE08093C4
S1130B808100EFE6F0E0808182608083089531E1A6
S1130B90FC013083319722E220833197A3E3A083C1
S1130BA0319760833197708331971082319760E871
S1130BB0608331971082319762E06083319763E0FC
S1130BC06083319764E06083319765E06083319797
S1130BD066E06083319767E06083319768E0608303
S1130BE0319769E06083319760E1608331973083A6
S1130BF0319732E13083319733E13083319734E1F7
S1130C003083319735E13083319736E13083319742
S1130C1037E13083319738E13083319739E13083DC
S1130C20319730E23083319731E23083319720833A
S1130C30319723E220833197408331975083319752
S1130C4026E22083319727E22083319728E220830C
S1130C50319729E22083319720E32083319721E3E0
S1130C602083869708950E94B305A0918808B091C7
S1130C708908CD91CDBFDD91DEBFFF91EF91DF916A
S1130C80CF91BF91AF919F918F917F916F915F9120
S1130C904F913F912F911F910F91FF90EF90DF9013
S1130CA0CF90BF90AF909F908F907F906F905F9008
S1130CB04F903F902F901F900F900FBE0F9008956C
S1130CC081E008950F920FB6F8940F921F921124A9
S1130CD02F923F924F925F926F927F928F929F9248
S1130CE0AF92BF92CF92DF92EF92FF920F931F9336
S1130CF02F933F934F935F936F937F938F939F9320
S1130D00AF93BF93CF93DF93EF93FF93A0918808A2
S1130D10B09189080DB60D920EB60D920E947E0A0E
S1130D20A0918808B0918908CD91CDBFDD91DEBF37
S1130D30FF91EF91DF91CF91BF91AF919F918F91EF
S1130D407F916F915F914F913F912F911F910F91DF
S1130D50FF90EF90DF90CF90BF90AF909F908F90D7
S1130D607F906F905F904F903F902F901F900F90C7
S1130D700FBE0F9008950F920FB6F8940F921F9222
S1130D8011242F923F924F925F926F927F928F9293
S1130D909F92AF92BF92CF92DF92EF92FF920F9306
S1130DA01F932F933F934F935F936F937F938F93EF
S1130DB09F93AF93BF93CF93DF93EF93FF93A09150
S1130DC08808B09189080DB60D920EB60D920E9456
S1130DD0F60881110E947E0AA0918808B0918908C2
S1130DE0CD91CDBFDD91DEBFFF91EF91DF91CF912A
S1130DF0BF91AF919F918F917F916F915F914F912F
S1130E003F912F911F910F91FF90EF90DF90CF9022
S1130E10BF90AF909F908F907F906F905F904F9016
S1130E203F902F901F900F900FBE0F9008950E9437
S1130E30BB061895E0915008F0915108808181110A
S1130E4007C08FEF9FEF90930901809308010895E5
S1130E50E0915008F09151080580F681E02D06805C
S1130E60F781E02D82819381909309018093080199
S1130E7008950F931F93CF93DF936115710521F4A8
S1130E800E945300EC0101C0EB01209779F086E247
S1130E9090E00E9453008C01009721F0FC01D08F58
S1130EA0C78B06C0CE010E94880002C000E010E09B
S1130EB0C801DF91CF911F910F910895CF93DF93D4
S1130EC0EC018F89988D0E948800CE010E948800D1
S1130ED0DF91CF9108951F93CF93DF93EC01142FEB
S1130EE020E00FC0822F90E0FB01E80FF91F308152
S1130EF0DE01A80FB91F59963C938081882319F00D
S1130F002F5F283078F318A2143008F013E01E8BFA
S1130F10CE0102960E944A01CE010C960E944A011B
S1130F20D987C88784E090E0811B91099D878C87CD
S1130F30DB8BCA8B19A21AA21BA21CA21DA2DF91D1
S1130F40CF911F910895CF93C0E010C08C2F90E0F3
S1130F509C01220F331F220F331F220F331F820FD6
S1130F60931F8C59974F0E943C01CF5FC43070F39C
S1130F708BE598E00E943C0182E598E00E943C01E8
S1130F8085E498E00E943C018CE398E00E943C01D7
S1130F908BE598E0909351088093500882E598E09F
S1130FA090934F0880934E08CF910895CF93DF9389
S1130FB0EC01E0918808F091890893838283809101
S1130FC0380890913908C817D90768F460918808DF
S1130FD07091890880914E0890914F086E5F7F4F01
S1130FE00E946F0117C060918808709189088091F0
S1130FF05008909151086E5F7F4F0E946F0180915D
S1131000080190910901C817D90720F4D093090168
S1131010C0930801DF91CF9108952F923F924F9290
S11310205F927F928F929F92AF92BF92CF92DF9204
S1131030EF92FF920F931F93CF93DF9300D000D0D2
S1131040CDB7DEB79A8389834B015C834B83190147
S1131050702EB6012501CA010E9439075C01009770
S113106009F46AC0FC01C788D08C8B819C810197EC
S1131070C80ED91E0B811C819201472DB401C501F4
S11310800E946B07A10169817A81C6010E94C7058C
S1131090F50191838083E114F10419F0F701B18221
S11310A0A0820FB6F8940F9280913A088F5F8093D4
S11310B03A088091880890918908892B59F4B09254
S11310C08908A092880880913A08813091F40E949E
S11310D0A3070FC08091360881110BC0E0918808E6
S11310E0F09189088689781620F0B0928908A09238
S11310F08808809132088F5F80933208F5018689D1
S113110090913708981710F48093370890E0B50150
S11311106E5F7F4F9C01220F331F220F331F220F5C
S1131120331F820F931F8C59974F0E944E010F90CB
S11311300FBEF1E0F98302C08FEF8983E981E130CA
S113114069F480913608882349F0E0918808F09189
S113115089088689871510F40E94620689810F9098
S11311600F900F900F90DF91CF911F910F91FF90EF
S1131170EF90DF90CF90BF90AF909F908F907F9033
S11311805F904F903F902F900895AF92BF92CF926F
S1131190DF92EF92FF920F93A12CB12CC12CD12C92
S11311A0E12CF12C00E020E030E045E550E06DE377
S11311B072E083E79AE00E940D08813049F4F894C4
S11311C08093360810923908109238080E9433062A
S11311D00F91FF90EF90DF90CF90BF90AF90089564
S11311E0809131088F5F809331080895DF92EF92E8
S11311F0FF920F931F93CF93DF9380913108811156
S113120099C08091380890913908019690933908D3
S113121080933808E0903808F0903908E114F1041C
S1131220B9F4809150089091510820914E08309162
S11312304F08309351082093500890934F0880939F
S11312404E08809133088F5F809333080E941A07F9
S11312508091080190910901E816F90628F4D12C2F
S113126053C0DD24D39401C0D12CE0915008F091F7
S113127051088081811107C08FEF9FEF909309017E
S11312808093080141C0E0915008F0915108058015
S1131290F681E02DC681D7818A819B81E816F90603
S11312A028F490930901809308012EC08E010E5FEB
S11312B01F4FC8010E94A0018C899D89892B21F0B0
S11312C0CE010C960E94A0018E8990913708981740
S11312D010F48093370890E09C01220F331F220FF3
S11312E0331F220F331F820F931FB8018C59974F5E
S11312F00E944E019E89E0918808F09189088689B0
S1131300981708F0AECFB1CFE0918808F091890822
S1131310868990E0FC01EE0FFF1FEE0FFF1FEE0F1A
S1131320FF1F8E0F9F1FFC01EC59F74F8081823005
S113133040F409C0809135088F5F80933508D12C23
S113134002C0DD24D39480913408882311F0DD2475
S1131350D3948D2DDF91CF911F910F91FF90EF903A
S1131360DF9008950F931F93CF93DF930FB6F894F4
S11313700F92809131088150809331088091310817
S1131380811157C080913A08811132C055C0E09153
S11313904A08F0914B08C681D781CE010C960E9471
S11313A0A0018E010E5F1F4FC8010E94A0018E890B
S11313B090913708981710F48093370890E09C01B7
S11313C0220F331F220F331F220F331F820F931F4D
S11313D0B8018C59974F0E944E019E89E09188086C
S11313E0F09189088689981718F081E08093340871
S11313F0809145088111CBCF8091350881110DC0B2
S113140010C00E94F608882319F081E08093340804
S11314108091350881508093350880913508811179
S1131420F0CF80913408813031F40E94620681E06B
S113143003C080E001C080E00F900FBEDF91CF9128
S11314401F910F910895CF93DF93EC01892BA9F09D
S11314500E94F0088091380890913908C80FD91F6C
S1131460809188089091890802960E94A001CE017B
S11314700E94D6070E94B20901C080E0811102C017
S11314800E946206DF91CF910895CF93DF9324C029
S11314900E94F008C0913C080E94B209CC23E1F0FC
S11314A00FB6F8940F92E0914108F0914208C6817A
S11314B0D781CE0102960E94A00180913A08815002
S11314C080933A0880913B08815080933B080F90A9
S11314D00FBECE010E945E0780913B088111D8CFD8
S11314E0DF91CF9108950E94450A8091640882306B
S11314F010F00E9462060E949703F5CF8091310894
S1131500882321F081E080933408089510923408F0
S113151005C080913708815080933708809137083F
S113152090E0FC01EE0FFF1FEE0FFF1FEE0FFF1FF9
S11315308E0F9F1FFC01EC59F74F8081882349F3DC
S11315408091370890E09C01220F331F220F331F34
S1131550220F331F280F391FD901AC59B74F1196E9
S1131560ED91FC9112970280F381E02D1296FC9389
S1131570EE9311972959374FE217F30729F4228183
S11315803381FD0132832183FC01EE0FFF1FEE0F37
S1131590FF1FEE0FFF1F8E0F9F1FFC01EC59F74F2B
S11315A00180F281E02D8681978190938908809350
S11315B088080895AA1BBB1B51E107C0AA1FBB1FC3
S11315C0A617B70710F0A61BB70B881F991F5A95CB
S11315D0A9F780959095BC01CD01089597FB072E3E
S11315E016F4009407D077FD09D00E94DA0A07FCAC
S11315F005D03EF4909581959F4F0895709561951F
S11316007F4F0895A29FB001B39FC001A39F700DA7
S1131610811D1124911DB29F700D811D1124911DF6
S11316200895B7FF0C94910B0E94910B821B930BAE
S11316300895689401C0E8948F929F92CF93DF93AA
S11316400E94270BDF91CF919F908F90089588245B
S11316509924F401E401B0E49F93AA279A158B041A
S11316609C04ED05FE05CF05D007A10798F4AD2F26
S1131670DC2FCF2FFE2FE92D982C892E982F872F22
S1131680762F652F542F432F322F2227B85031F74E
S1131690BF9127C01B2EBF91BB27220F331F441FAE
S11316A0551F661F771F881F991F881C991CEE1FE2
S11316B0FF1FCC1FDD1FAA1FBB1F8A149B04EC0550
S11316C0FD05CE05DF05A007B10748F08A189B0881
S11316D0EC09FD09CE09DF09A00BB10B21601A94B6
S11316E0E1F62EF49401AF01BE01CD01000C089582
S11316F00F93083090F0982F872F762F652F542F53
S1131700432F322F22270850F4CF220F331F441FB8
S1131710551F661F771F881F991F0A95B2F70F91EF
S113172008950E94020BA59F900DB49F900DA49F55
S1131730800D911D11240895BB274A3031F499235B
S113174022F4BDE2909581959F4F0C94A80BBB2782
S1131750FB015527AA27880F991FAA1FA41710F069
S1131760A41B83955051B9F7A05DAA3308F0A95D75
S1131770A193009779F7B111B1931192CB010C9415
S1131780C10BDC01FC01672F71917723E1F73297DC
S113179004C07C916D9370836291AE17BF07C8F348
S10917A00895F894FFCF48
S11317A60101191464003203FFFF4F4E20004F4617
S11317B64600515541005452490052414D0053458B
S11317C64E002500415449564944414445203800B9
S11317D64D4753004C43440042544E530080838685
S11317E6898C8F9295989C9FA2A5A8ABAEB0B3B6F0
S11317F6B9BCBFC1C4C7C9CCCED1D3D5D8DADCDE17
S1131806E0E2E4E6E8EAEBEDEFF0F2F3F4F6F7F8FB
S1131816F9FAFBFBFCFDFDFEFEFEFFFFFFFFFFFFEB
S1131826FFFEFEFDFDFCFCFBFAF9F8F7F6F5F4F213
S1131836F1EFEEECEBE9E7E5E3E1DFDDDBD9D7D465
S1131846D2CFCDCAC8C5C3C0BDBAB8B5B2AFACA9AC
S1131856A6A3A09D9A9794918E8B8784817E7B788C
S113186675716E6B6865625F5C595653504D4A4795
S113187645423F3C3A373532302D2B292624222047
S11318861E1C1A1816141311100E0D0B0A0908073C
S11318960605040303020201010000000000000023
S11318A6010101020203040405060708090B0C0DD5
S11318B60F1012131517191B1D1F212325272A2C58
S11318C62E313336383B3E404346494C4E515457ED
S11318D65A5D606366696D707376797C7F49444CA2
S10518E64500B7
S9030000FC
